:020000040800F2
:10000000B8250020A90F0008590800085B0800085F
:100010005F08000863080008670800080000000087
:100020000000000000000000000000006B08000855
:100030006D080008000000008B400008590B000804
:10004000C30F0008C30F0008C30F0008C30F000848
:10005000C30F0008C30F0008C30F0008C30F000838
:10006000C30F0008C30F0008C30F0008C30F000828
:10007000C30F0008C30F0008C30F0008C30F000818
:10008000C30F0008C30F0008C30F0008C30F000808
:10009000C30F0008C30F0008C30F0008C30F0008F8
:1000A000C30F0008C30F0008C30F0008C30F0008E8
:1000B000C30F0008C30F0008C30F0008C30F0008D8
:1000C000C30F0008C30F0008C30F0008C30F0008C8
:1000D000C30F0008110D0008C30F00083F0F0008F0
:1000E000C30F0008C30F0008C30F0008C30F0008A8
:1000F000C30F0008C30F0008C30F0008C30F000898
:10010000C30F0008C30F0008C30F0008C30F000887
:10011000C30F0008C30F0008C30F0008C30F000877
:10012000C30F0008C30F0008C30F0008C30F000867
:1001300000F002F800F04CF80AA090E8000C8244AD
:100140008344AAF10107DA4501D100F041F8AFF28A
:10015000090EBAE80F0013F0010F18BFFB1A43F0A5
:100160000103184784610000A4610000103A24BF15
:1001700078C878C1FAD8520724BF30C830C144BF0C
:1001800004680C607047000000230024002500264E
:10019000103A28BF78C1FBD8520728BF30C148BFEA
:1001A0000B607047662905F08987642904F0088090
:1001B000002070471FB5AFF3008004F0E1FB04009E
:1001C0000020002105F00EF9E0601FBD10B510BD44
:1001D00004F0CCFC1146FFF7EDFF00F09FF904F0AE
:1001E000EAFCFFF7F3FF00F039FD000010B507E06F
:1001F00000231A461E21184603F07BFE00BFFEE7CF
:10020000F6E71CB512E001AA0021D648006803F009
:1002100015F9D5A003F0C4FF6B4601221146D7485B
:10022000006802F088FC0A2000F0E7FCEBE708B564
:1002300009E06B4601220421D048006802F07BFCF3
:10024000642000F0DAFCF4E71CB513E0CCA003F066
:10025000A7FF694601A800F02BFC9DF800209DF83F
:100260000410D1A003F09CFF002302221946184677
:1002700003F03FFEEAE72DE9F047D8B04FF0000861
:1002800099E000264FF49672D0490CA804F060F86B
:10029000CF4805680020CE4908602946CDA003F06C
:1002A0007FFF002452E000BF04EB44010CAA02EBE4
:1002B0004101B1F9040005F0FBFD82464FF08E418B
:1002C00005F0D4FC81464FF0834105F00BFE074654
:1002D000384605F097FC0B460246CDE90A01C1A05D
:1002E00003F05EFF0021384605F0B2FD2CD0384601
:1002F00005F088FCCDE90401BEA00CC8049805F007
:10030000E7FACDE90201BDA00CC8029805F0FCF99E
:10031000CDE9000105F094F98146384605F072FCFC
:10032000CDE90A01B3A00CC80A9805F0D1FACDE9CD
:100330000801B2A00CC8089805F0E6F9CDE906015D
:1003400005F07EF909FB006600BF641CAC42AAD32D
:100350000DB196FBF5F63146AAA003F021FFB6F5E4
:100360007A7F10DAB8F11E0F0DDA4146AAA003F029
:1003700017FF08F101087B48006803F00CF93220F0
:1003800000F03BFC0AE0B6F57A7F01DD4FF0000893
:1003900001F0A2FD00F07DFA01F0E3FDA249072083
:1003A00003F064FCA04802684168A0A003F0F8FED6
:1003B000322000F022FC64E71CB532E001AB009370
:1003C0000023032207216D48006802F058FA044612
:1003D0001CB99BA003F0E4FE20E014F0020F06D04D
:1003E00001AB002202216548006802F0A4FB14F072
:1003F000040F06D001AB002204216048006802F01F
:100400009AFB14F0010F09D091A003F0C9FE01ABD3
:10041000002201215948006802F08DFB0A2000F0FB
:10042000ECFBCBE730B587B00446002500BF06A93A
:10043000002002F0BCF851490860002002F07BFF68
:100440004849086001F018FE00F012FA03F0F6FDCA
:1004500005460323834A0021AFF2A30003F0C2F94B
:10046000032300224FF400717F48CDE90323CDE937
:100470000101072300F2FC720021AFF20520009376
:1004800003F006FA0323002240217848CDE9032334
:10049000CDE90101092300F1FC020021AFF2572050
:1004A000009303F0F5F90323002240217048CDE9C1
:1004B0000323CDE90101062300F1FC020021AFF284
:1004C0009120009303F0E4F90323002240216948BE
:1004D000CDE90323CDE90101052300F1FC02002150
:1004E000AFF2E120009303F0D3F90323002240216F
:1004F0006148CDE90323CDE90101082300F1FC02A5
:100500000021AFF21730009303F0C2F90A2003F084
:10051000F0FB284603F096FD07B030BD10B500F0A3
:1005200023FB00F095FB00F017FA4FF4165000F093
:10053000A3FB4FF4E13000F02DFC02E04FA003F0EC
:100540002FFE00F0E1FA0028F8D101F05CFC0A234C
:100550004E4A0021AFF2331003F044F901F074FD6C
:10056000002010BD0C00002061697220707265735C
:100570007375726520676574200D0A0008000020FD
:10058000537461727420726561642074656D706566
:1005900072617475726520616E642068756D69643E
:1005A0006974790D0A00000074656D70657261747C
:1005B0007572652069733A2025642C68756D6964CD
:1005C000697479206973202564200000B80F002029
:1005D0002800002061636353756D206973203A25FC
:1005E000640D0A007A2069733A252E3466200D0ABC
:1005F00000000000AE47E17A14AEEF3F00000000BB
:1006000000408F4076617269616E63652069732076
:100610003A25640D0A000000636F756E74206973DB
:100620003A25640D0A000000000000207573653A49
:1006300025642020667265653A25640D0A00000075
:10064000677072732073656E64200D0A00000000ED
:10065000677072732073656E64206865696768747B
:10066000200D0A00AC020020B0050020B0020020DE
:10067000B0040020B0030020B00D002043616E6E76
:10068000277420696E69740D0A000000AC01002017
:1006900000200021674A126842F48032654B1A60DC
:1006A00000BF644A126802F40031401C11B9B0F571
:1006B000A06FF6D15F4A126812F4003F01D0012109
:1006C00000E00021012942D15B4A126842F0100289
:1006D000594B1A601A46126822F003021A601A4631
:1006E000126842F002021A60524A5268514B5A6034
:1006F0001A4652685A601A46526842F480625A603A
:100700001A46526822F47C125A601A46526842F421
:10071000E8125A601A46126842F080721A6000BFEE
:10072000444A126812F0007FFAD0424A526822F01E
:100730000302404B5A601A46526842F002025A6065
:1007400000BF3C4A526802F00C02082AF9D17047F7
:1007500010B5FFF79DFF10BD10B53648006840F09A
:10076000010034490860084640683449084031496E
:10077000486008460068324908402E49086008462B
:10078000006820F4802008600846406820F4FE00DD
:1007900048604FF41F008860FFF7DAFF4FF00060F9
:1007A0002849086010BD10B5002000210022214B0F
:1007B0005B6803F00C0020B1042806D0082828D17B
:1007C00007E0214B214C236027E01F4B1F4C236087
:1007D00023E0184B5B6803F47011164B5B6803F45D
:1007E0008032022303EB914122B9194B4B43174C42
:1007F00023600DE00F4B5B6813F4003F04D0144BF3
:100800004B43124C236003E00F4B4B430F4C2360D0
:1008100003E00D4B0D4C236000BF00BF054B5B6830
:10082000C3F303130B4CE05C084B1B68C340074C3D
:10083000236010BD00100240002002400000FFF8BD
:10084000FFFFF6FE08ED00E000127A001000002025
:1008500000093D0014000020704700BFFEE700BF04
:10086000FEE700BFFEE700BFFEE7704770470000ED
:1008700040F2E170374908800820488007208880CE
:100880001120C880062008811E2048810020888110
:10089000704710B503F0ABFB04464FF47A70B4FB1D
:1008A000F0F100FB11402B498989084400B2294925
:1008B00088810846B0F90C00B0F57A7F18DB08464D
:1008C000B0F90C004FF47A7190FBF1F0214949899D
:1008D000084400B21F4948810846B0F90C004FF4A3
:1008E0007A7190FBF1F201FB120000B21949888184
:1008F0001848B0F90A003C280ADB164840893C3801
:1009000000B21449488108460089401C00B20881A1
:100910001048B0F908003C280ADB0E4800893C3832
:1009200000B20C4908810846C088401C00B2C8804B
:100930000848B0F9060018280ADB0648C0881838AD
:1009400000B20449C88008468088401C00B28880F4
:1009500010BD0000B00E002008B50121482000F0B5
:10096000BDFE2020ADF8000010208DF8030003200C
:100970008DF802006946094800F006FC202107486E
:1009800000F0AAFC2020ADF800006946044800F001
:10099000FBFB2021024800F09FFC08BD000C014039
:1009A0000018014010B56848006820F00F00674942
:1009B000C1F804080846D0F8040840F00300624972
:1009C000086000206249086044F6206000F0F3F8F7
:1009D00001206049C1F8A0011E2000F0ECF810BD14
:1009E00010B500245848006820F00F005749C1F89E
:1009F00004080846D0F8040840F00800C1F80408CC
:100A000004E0601CC4B2012000F0D5F850488038E2
:100A1000006808B1642CF4DB642C01DB012010BDFC
:100A2000002404E0601CC4B2012000F0C4F848486F
:100A30008038006808B9642CF4DB642C01DB0120E9
:100A4000EDE70020EBE710B5002404E0601CC4B221
:100A5000012000F0B0F83E488038006808B1642CEE
:100A6000F4DB002404E0601CC4B2012000F0A3F811
:100A700037488038006808B9642CF4DB282000F07F
:100A80009AF833488038006808B1012010BD002072
:100A9000FCE770B50025002406E06806050EFFF7A8
:100AA000D2FF0543601CC4B2082CF6DB284670BD9B
:100AB0007CB504460E46FFF775FFFFF791FFF8B9C6
:100AC000002505E0FFF7E5FF0DF80500681CC5B23D
:100AD000052DF7DB9DF800009DF8011008449DF8F6
:100AE000021008449DF8031008449DF80410884241
:100AF00008D19DF8000030709DF80200207001E0E0
:100B000001207CBD0020FCE708B50121042000F095
:100B1000E5FD4FF48070ADF8000010208DF8030063
:100B200003208DF8020069460748001F00F02CFBE7
:100B30004FF480710448001F00F0CEFBFFF732FF36
:100B4000FFF74EFF08BD000004080140000001400F
:100B5000A00121420000214210B501F06AF901F024
:100B6000AAFA01F081F910BD10B56FF0040000F091
:100B70008DFA334800683349B0FBF1F03249087010
:100B80002F4800682F49B0FBF1F44FF47A704443CA
:100B900001202D49891C08804FF0E020006940F0B9
:100BA00002004FF0E021086108464461006940F00E
:100BB0000100086110BD70B500244FF0E026756992
:100BC000214E367800FB06F100BF4FF0E026B369F6
:100BD00010E04FF0E026B2699A420BD09A4202D25E
:100BE0009E1A344402E0AE1A1E44344413468C422A
:100BF00000D300E0EDE700BF70BD70B504461348B8
:100C00000078012814D11048801C0088844207DB3A
:100C10000D48801C008894FBF0F5284603F034F959
:100C20000948801C008894FBF0F100FB114084B25D
:100C30004FF47A7104FB01F0FFF7BDFF70BD0000B7
:100C40001000002000127A00240000208E000020F6
:100C500010B54FF4A06000F0C7F910BD014600BF09
:100C6000704700BFC14A128812F0400FFAD0C2B2DA
:100C7000BE4B1B1D1A80704710B586B0044601217B
:100C800044F2040000F02AFD4FF40070ADF81400A7
:100C900003208DF8160018208DF8170005A9B44818
:100CA00000F072FA4FF48060ADF8140004208DF863
:100CB000170005A9AE4800F067FA25208DF800005E
:100CC00003208DF801008DF8020001208DF803004B
:100CD000684600F08EF901940020ADF80800ADF8E8
:100CE0000A00ADF80C00ADF810000C20ADF80E00B5
:100CF00001A99E4800F097FD012240F225519B4832
:100D000000F028FE0121994800F018FE06B010BD41
:100D100010B501F08EF840F22551944800F001FF23
:100D2000002834D0914800F07CFEC4B2914800887D
:100D300010F4004F2BD18F48008810F4804F0CD056
:100D40000A2C03D000208B49088020E089480088C5
:100D500040F400408749088019E00D2C06D18548F1
:100D6000008840F480408349088010E08148008872
:100D7000C0F30D0080490C547E480088401C7D491A
:100D8000088008460088C72801DD0020088001F09F
:100D90006BF810BD10B586B004460121082000F0A4
:100DA0009DFC0121880400F0A6FC744800F0F8FCCA
:100DB0004FF48060ADF8140003208DF81600182061
:100DC0008DF8170005A96E4800F0DEF94FF40060B9
:100DD000ADF8140004208DF8170005A9684800F04C
:100DE000D3F901940020ADF80800ADF80A00ADF881
:100DF0000C00ADF810000C20ADF80E0001A95F4802
:100E000000F011FD27208DF8000003208DF801006F
:100E10008DF8020001208DF80300684600F0E9F823
:100E2000012240F22551554800F094FD012153481C
:100E300000F084FD06B010BD10B50446514801789D
:100E40000078401C4F4A10704F4844540078552891
:100E500003D000201146087010BD4A4800780B28C6
:100E600000DAF9E748484078512804D052281FD0CA
:100E700053285FD13DE006224349891C434803F0D3
:100E800067FA4349096801EB4101424A02EB41001C
:100E900006223E4903F05CFA3D480068312801D340
:100EA000002002E03A480068401C3949086041E0EF
:100EB00006223549891C384803F04AFA31490E396F
:100EC000096801EB4101354A02EB41000622324933
:100ED00003F03EFA2B480E380068312801D3002079
:100EE00003E028480E380068401C26490E39086087
:100EF00020E006222449891C294803F029FA2149C7
:100F00000A39096801EB4101264A02EB4100062239
:100F1000234903F01DFA1B480A380068312801D321
:100F2000002003E017480A380068401C15490A39B8
:100F3000086000BF00BF0020124908708CE710B5A0
:100F400000F077FF40F225510C4800F0EAFD50B167
:100F50000A49091D0988C8B2FFF76EFF40F2255102
:100F6000064800F008FE00F07FFF10BD0038014089
:100F700000080140340000203C13002000480040DD
:100F8000000C01403A000020BE0E00203C00002072
:100F900028000020B80F002042000020E4100020AC
:100FA00048000020101200200948804709480047E7
:100FB000FEE7FEE7FEE7FEE7FEE7FEE7FEE7FEE709
:100FC000FEE7FEE704480549054A064B7047000066
:100FD0005907000831010008B81F0020B82500207B
:100FE000B8210020B821002032490143324A116063
:100FF000704770B5002100230F22C4780CB32E4C2B
:10100000246804F4E064C4F5E064210AC1F1040337
:10101000CA40447804FA03F184781440214309015A
:10102000264C0678A155047804F01F050124AC4035
:1010300005786D114FF0E02606EB8505C5F80041F7
:1010400009E0047804F01F040125A5401C4C067833
:10105000761144F8265070BD1A4A0A400243164BD6
:101060001B1F1A60704741B1134A121D12680243D8
:101070004FF0E023C3F8102D07E00F4A121D12684D
:1010800082434FF0E023C3F8102D7047042808D1A5
:101090004FF0E021096941F004014FF0E0221161B5
:1010A00007E04FF0E021096921F004014FF0E02250
:1010B000116170470000FA050CED00E000E400E06B
:1010C00080E100E080FFFF1F10B50446C74884425E
:1010D00008D10121042000F01BFB0021042000F0B6
:1010E00017FB46E0C248844208D10121082000F0E5
:1010F0000FFB0021082000F00BFB3AE0BD488442C2
:1011000008D10121102000F003FB0021102000F085
:10111000FFFA2EE0B848844208D10121202000F0D7
:10112000F7FA0021202000F0F3FA22E0B3488442CD
:1011300008D10121402000F0EBFA0021402000F00E
:10114000E7FA16E0AE48844208D10121802000F081
:10115000DFFA0021802000F0DBFA0AE0A94884428F
:1011600007D10121801500F0D3FA0021A01500F06D
:10117000CFFA10BD10B50121084600F0C9FA0021D0
:10118000012000F0C5FA10BDF0B5002200230024B4
:1011900000250026002791F803C00CF00F0291F8FB
:1011A00003C01CF0100F03D091F802C04CEA0202F9
:1011B000B1F800C01CF0FF0F31D0066800242BE00E
:1011C0004FF0010C0CFA04F5B1F800C00CEA05036D
:1011D000AB4220D1A5004FF00F0C0CFA05F7BE432F
:1011E00002FA05FC4CEA060691F803C0BCF1280F90
:1011F00006D14FF0010C0CFA04FCC0F814C00AE050
:1012000091F803C0BCF1480F05D14FF0010C0CFA66
:1012100004FCC0F810C0641C082CD1D30660B1F8DF
:1012200000C0BCF1FF0F34DD466800242EE004F15D
:10123000080C4FF0010E0EFA0CF5B1F800C00CEAE4
:101240000503AB4221D1A5004FF00F0C0CFA05F7B6
:10125000BE4302FA05FC4CEA060691F803C0BCF155
:10126000280F05D104F1080C0EFA0CFEC0F814E0AA
:1012700091F803C0BCF1480F07D104F1080C4FF0FE
:10128000010E0EFA0CFEC0F810E0641C082CCED340
:101290004660F0BD4FF6FF7101800221817004218C
:1012A000C17070470246002093680B4201D00120B4
:1012B00000E0002070470146886880B2704702460F
:1012C0000020D3680B4201D0012000E000207047CD
:1012D0000146C86880B2704701617047416170473C
:1012E0000AB1016100E041617047C16070474FF48D
:1012F00080320A43826181618261826982697047BA
:101300000022414B1A684FF680731A4042EA0012DD
:101310000A433D4B1A6070473C49C8617047F0B5BD
:10132000002200230024002500F00046B6F1004F03
:1013300002D1354EF46901E0334E7468C0F30345C1
:1013400082B200F44016B6F5401F08D124F0706454
:101350002D4E766826F070662B4F7E6012E000F40A
:101360008016B6F5801F06D1032606FA05F39C43C6
:1013700044F0706406E0460D360102FA06F6B44306
:1013800044F0706421B1460D360102FA06F634438A
:1013900000F00046B6F1004F02D11B4EF46101E0AF
:1013A000194E7460F0BD30B500228B071C0F0F235F
:1013B00003FA04F2144B08338C1053F8244094437E
:1013C0008D1043F825408C1053F824308C07240FDF
:1013D00000FA04F423430C4C08348D1044F82530F3
:1013E00030BD0A49DC310860704700000008014048
:1013F000000C0140001001400014014000180140A1
:10140000001C01400020014000000140000020427B
:10141000DB48006840F00100D94908600846406890
:10142000D8490840D649486008460068D64908406F
:10143000D34908600846006820F480200860084608
:10144000406820F4FE0048604FF41F008860704739
:10145000CB49096821F48031C94A116011460968F5
:1014600021F480211160B0F5803F03D0B0F5802FCA
:101470000ED106E0C249096841F48031C04A1160CA
:1014800007E0BF49096841F4A021BD4A116000E0AE
:1014900000BF00BF704710B50146002200230020A6
:1014A0004A11012A02D1B64C236806E0022A02D171
:1014B000B34C236A01E0B24C636A01F01F020124BD
:1014C00094401C4201D0012000E0002010BD70B506
:1014D00000240025002600BF3120FFF7DCFF064670
:1014E000641CB4F5A06F01D0002EF5D03120FFF7B9
:1014F000D2FF08B1012500E00025284670BD00217B
:101500009F4A116821F0F80141EAC001116070475B
:101510009E49086070470022994B5A6822F47C1259
:1015200040EA01031A43964B5A6070479749086690
:1015300070470021924A516821F003010143516034
:1015400070478F48406800F00C00704700218C4ABB
:10155000516821F0F0010143516070470021884A31
:10156000516821F4E0610143516070470021844AD1
:10157000516821F4605141EAC0015160704729B1BE
:101580007F4A527A02437E4B5A7206E07C4A527A74
:10159000C343DBB21A407A4B5A7270477B49D83149
:1015A000086070470021764A516821F440410143A8
:1015B000516070470021724A20321170704A82F8DF
:1015C0002010012802D004280AD104E001216C4A2D
:1015D0002032117005E00521694A2032117000E0C7
:1015E00000BF00BF70476A49086070476449096AD4
:1015F0000143634A11627047654944390860704786
:1016000030B500210022002300245D4D6D6805F0F7
:101610000C0121B1042905D0082923D105E05D4D35
:10162000056022E05B4D05601FE0554D6D6805F4D7
:101630007012534D6D6805F48033022505EB92421C
:101640001BB9554D554305600BE04D4D6D6815F4C4
:10165000003F03D0504D5543056002E04D4D5543CA
:10166000056002E04B4D056000BF00BF444D6D6852
:1016700005F0F0010909494D6C5C0568E5404560DD
:101680003F4D6D6805F4E061090A444D6C5C4568A6
:10169000E54085603A4D6D6805F46051C90A3F4DDB
:1016A0006C5C4568E540C560354D6D6805F44041AA
:1016B000890B3A4D10356C5CC568B5FBF4F50561D6
:1016C00030BD29B12E4A526902432D4B5A6104E0C4
:1016D0002B4A526982432A4B5A61704729B1284AE2
:1016E00092690243264B9A6104E0254A926982433B
:1016F000234B9A61704729B1214AD2690243204B9A
:10170000DA6104E01E4AD26982431D4BDA617047F8
:1017100029B11B4AD2680243194BDA6004E0184A27
:10172000D2688243164BDA60704729B1144A1269B5
:101730000243134B1A6104E0114A12698243104BB1
:101740001A61704712494039086070470F49C864F0
:1017500070470B49C87170470948406A40F0807073
:1017600007494862704701460020054A92680A42CC
:1017700001D0012000E000207047014988727047C5
:10178000001002400000FFF8FFFFF6FE000042429A
:101790008004424200127A0000093D0054000020FB
:1017A00010B50446FB48844209D101218803FFF7A4
:1017B000AFFF00214FF48040FFF7AAFF32E0F64868
:1017C000844209D101214804FFF7AFFF00214FF403
:1017D0000030FFF7AAFF25E0F048844209D101213B
:1017E0008804FFF7A2FF00214FF48020FFF79DFF40
:1017F00018E0EB48844209D10121C804FFF795FFA6
:1018000000214FF40020FFF790FF0BE0E5488442F1
:1018100008D101210805FFF788FF00214FF480104F
:10182000FFF783FF10BD2DE9F04786B004460D4653
:101830000026002700BFB146B246A88900B100BF0C
:10184000A246268A4CF6FF700640E88806432682A8
:10185000A6894EF6F3100640A888298908436989AD
:1018600008430643A681A68A4FF6FF400640A88992
:101870000643A68201A8FFF7C3FE5446C548824529
:1018800001D1049F00E0039FA08910F4004F08D00D
:1018900007EBC70000EB071029684900B0FBF1F81F
:1018A00007E007EBC70000EB071029688900B0FBD1
:1018B000F1F86420B8FBF0F006013009642101FB67
:1018C0001089A08910F4004F09D0322101EBC90022
:1018D0006421B0FBF1F000F00700064308E032217C
:1018E00001EB09106421B0FBF1F000F00F0006439A
:1018F000268106B0BDE8F0874FF416510160002143
:101900008180C18001810C2141810021818170474A
:1019100010B50022028A4FF2FF031A400B884C8850
:1019200023438C882343CC8823431A43028210BD6F
:101930000021018041808180C180704721B182896E
:1019400042F40052828104E082894DF6FF731A400E
:1019500082817047F0B50024002500260023A1F500
:1019600010676A3F00D100BF0346C1F3421401F083
:101970001F05012707FA05F6012C01D10C3304E0FD
:10198000022C01D1103300E014331AB11F68374321
:101990001F6002E01F68B7431F60F0BD10B51AB1A9
:1019A000838A0B43838204E0838ACC43A4B223401E
:1019B000838210BD028A4FF6F0731A400282028AB7
:1019C0000A430282704782894FF2FF731A40828174
:1019D00082890A438281704721B1828942F00202E2
:1019E000828104E082894FF6FD731A40828170473C
:1019F000028A4FF6DF731A400282028A0A43028289
:101A0000704721B1028A42F48042028204E0028AD5
:101A10004BF6FF731A4002827047C1F308028280BE
:101A2000704701468888C0F308007047818941F0FB
:101A3000010181817047028BD2B20283028B42EA9C
:101A4000012202837047028B02F47F420283028BE1
:101A50000A430283704721B1828A42F020028282C7
:101A600004E0828A4FF6DF731A408282704721B108
:101A7000828A42F01002828204E0828A4FF6EF737B
:101A80001A408282704721B1828A42F00802828223
:101A900004E0828A4FF6F7731A408282704721B1C0
:101AA000828942F40042828103E08289C2F30E02FD
:101AB0008281704721B1828A42F40062828204E00E
:101AC000828A4FF2FF731A4082827047828A4FF6F1
:101AD000FB731A408282828A0A438282704721B154
:101AE000828A42F00202828204E0828A4FF6FD730B
:101AF0001A408282704702460020B1F5007F00D173
:101B000000BF13880B4201D0012000E00020704785
:101B100001F40072B2F5007F00D100BFCA43028019
:101B2000704770B502460023002400250020A1F56F
:101B300010666A3E00D100BFC1F3421501F01F04D8
:101B4000012606FA04F4012D02D19689344006E0FC
:101B5000022D02D1168A344001E0968A34400B12DD
:101B6000012606FA03F31688334014B10BB10120A5
:101B700000E0002070BD10B500220023A1F5106424
:101B80006A3C00D100BF0A1201249440A3B2DC4396
:101B9000048010BD0038014000440040004800406F
:101BA000004C0040005000407CB5002614E069461F
:101BB000304602F05BF8054665B9FA4850F8264011
:101BC00044B1012C06D0D4E9020100EB810060642D
:101BD0000198A064701CC6B23F2EE8D97CBD70B5D8
:101BE000002400BF02E0C82002F04EF9EE48007861
:101BF0000028F8D0ED4800686421B0FBF1F0EB4913
:101C000008600846006828B90020E9490870FF20EC
:101C100002F06FF800BF02F011FA0446E5480068D0
:101C2000E54908600020E3490860204602F00AFA0E
:101C3000E1480068DD490968B0FBF1F0C0F16400DB
:101C4000DB49087002F059FAFFF7AEFF642002F09A
:101C50001BF9E0E700B587B0032300228021D748B5
:101C6000CDE90323CDE901014FF6FE7300933E2336
:101C700000F5FE720021AFF2990001F009FE06AAFC
:101C8000CFA13E2001F075FF07B000BD70B5002464
:101C900000BF00BF02F0D2F90446C6480068401CED
:101CA000C4490860204602F0CDF902F025FAF1E7B8
:101CB00000B587B0032300228021C548CDE9032366
:101CC000CDE901014FF6FF7300933F2300F5FE724B
:101CD0000021AFF2470001F0DBFD06AABDA13F20C5
:101CE00001F047FF07B000BD04E0002200F8012B1F
:101CF0004A1E91B20029F8D1704770B5C821B94881
:101D0000FFF7F2FF00230FE0581C84B203EB8300BF
:101D1000B44901EB800504EB840001EB8006002050
:101D200028706E60581C83B2092BEDD303EB83003F
:101D3000AC4901EB80050020287068600846AA497C
:101D4000086070BD70B54FF47C71A848FFF7CCFFF8
:101D50004FF480719348FFF7C7FF002313E0581C2E
:101D6000C4B2C3EBC30000EB4000A04901EB800507
:101D7000C4EBC40000EB400001EB80066E619CA048
:101D8000E864581CC3B20B2BE9D3C3EBC30000EBD0
:101D90004000964901EB80050020686194A0E8644A
:101DA00000209449086091489349086070BD002163
:101DB000924A1170002004E00021914A1154411C04
:101DC000C8B20828F8D300218E4A11708E4A1170CB
:101DD0008E4A11608E4A1160704700208D4908605C
:101DE0008D4908708D4908708D4908708D490870BB
:101DF0008D4908606F4908606F4908606B49086049
:101E000069490870704710B502F072F9FFF7E5FFF5
:101E1000FFF7CDFFFFF796FFFFF76FFF00F04EFFD4
:101E200001F04BFAFFF744FFFFF714FF02F061F9EE
:101E300010BD7C480078012808D177480078FF2839
:101E400004D275480078401C734908707047774980
:101E50006A4A1278885C6A49095C744A515C01EBF1
:101E6000C001694A1170704710B500246D480078B0
:101E7000012830D102F0E2F804466748007820B12A
:101E800065480078401E6449087063480078F8B9D6
:101E900062480078E0B9FFF7DAFF42485A4909780A
:101EA00050F8210059490860574800785549097889
:101EB00088420DD055480068806B401C5349096822
:101EC000886359480068401C5749086002F0D5F8FB
:101ED000204602F0B7F810BD10B500245148007834
:101EE000012811D102F0AAF804464B48007840B905
:101EF0004A480078FF2804D248480078401C4749E7
:101F00000870204602F09EF810BD10B5002402F0C3
:101F100095F8044640480078F8B940480078E0B9A0
:101F2000FFF795FF1F483849097850F821003749D5
:101F30000860354800783349097888420DD0334825
:101F40000068806B401C3149096888633648006826
:101F5000401C3549086002F089F8204602F072F80A
:101F600010BD10B500242F48007801286BD102F075
:101F700065F804462948007880B128480078401E5A
:101F8000264908700846007848B92348007838B9CF
:101F9000204602F057F8FFF7B8FF54E050E04BE05E
:101FA00046E00000F01900208000002078000020AA
:101FB00074000020900000207C000020F01500201C
:101FC00075432F4F532D494920537461740000000D
:101FD000F017002075432F4F532D49492049646C59
:101FE00065000000D81400206C000020F01A0020CA
:101FF0003F000000A0000020980000208500002085
:102000008600002083000020840000209C00002027
:1020100094000020AC0000208100002082000020FD
:102020008F0000208E00002068000020546100080E
:10203000204602F007F806E0204602F003F802E02E
:10204000204601F0FFFF10BD10B5FF48007890B9A1
:10205000FFF7FDFEFD480078FD490870FD48FB498B
:10206000097850F82100FC49086008460068FB49DF
:10207000086001F0EAFF10BD10B50024022001F055
:1020800003FF01F0DBFF04460020F549086020460D
:1020900001F0D8FF642001F0F7FE01F0CFFF044605
:1020A000EF480068EF4908600120EF4908702046BA
:1020B00001F0C8FF10BD70B5002602F06EF801F007
:1020C000BDFF0646E9480068401CE8490860304604
:1020D00001F0B8FFDC480078012853D1E4480078CB
:1020E00020B1012804D0022809D103E001250BE02A
:1020F000002509E001250120DD49087004E00125E3
:102100000020DB49087000BF00BF05B970BDD94889
:10211000046833E001F092FF0646E06A50B3E06ADB
:10212000401EE062E06A28BB94F8300010F0370FE0
:1021300008D014F8300F00F0C80020700120607043
:10214000303C02E0002084F8310094F8300010F0B8
:10215000080F0FD13434A078C74909780843C6491D
:1021600008702078C549085C6178084314F8341970
:10217000C24A50546469304601F064FF94F832005A
:102180003F28C7D1C2E740F223107047704710B50F
:1021900090F8342001F10B039C5C90F83530DB4360
:1021A000DBB21C4001F10B039C549B5C33B98B7A6E
:1021B00090F83640E443E4B223408B7210BD2DE921
:1021C000F04F04460D4616461F46A07AAC4911F85A
:1021D000009004F10B0010F8090011F800A00AEBC0
:1021E000C90000F0FF0B9B4850F82B800020C8F876
:1021F0002C00C8F8205098F83000F143C9B20840CC
:1022000088F8300088F8317098F8300010F0080F26
:102210000FD198F836009849097808439649087014
:10222000964810F8090098F835100843934901F8CA
:10223000090021464046FFF7AAFF5846BDE8F08F47
:1022400010B5864A1268D061844A126892F8343018
:1022500000F10B02D35C814A126892F835201343D7
:102260007E4A126892F8344000F10B021355827ACC
:102270007A4B1B6893F836301A438272774A126899
:1022800092F834107D4A525C744B1B6893F83530D9
:10229000DB43DBB21A40794B5A541A46525C52B9AE
:1022A0006E4A126892F83620D243D2B2724B1B7833
:1022B0001A40714B1A7010BD00228272002105E095
:1022C000002300F10B0253544A1CD1B20829F7D362
:1022D000704705E011F8013B00F8013B531E9AB22C
:1022E000002AF7D170470146002002E0491C421C39
:1022F000D0B20A78002AF9D170472DE9FC5F044674
:102300000D4616461F46DDE90D9ADDF830800020A7
:10231000019001F093FE01905A48D0F800B0BBF153
:10232000000F7ED05749DBF814000860019801F0D7
:1023300089FECBF800508BF8324000208BF830003B
:102340008BF83100CBF82C00CBF80490CBF80C8044
:10235000CBF80860ABF810A0ABF812708BF8370020
:10236000E0108BF8340004F007008BF833009BF882
:102370003410012088408BF836009BF83310012080
:1023800088408BF835000020CBF81C00CBF82400E7
:10239000CBF82000CBF83800CBF84000CBF83C005D
:1023A000CBF84400CBF84800AFF2BC30CBF84C007F
:1023B0000020009009E000210BF15000009A40F845
:1023C00022100098401CC0B2009000980028F2D063
:1023D000584601F0E1FE584601F08CFE01F02EFE59
:1023E00001901C4840F824B022480068CBF8140043
:1023F0000020CBF818001F48006818B11D4800687D
:10240000C0F818B01B48C0F800B09BF836001A4955
:1024100009780843184908709BF834001749085C8C
:1024200000E033E09BF8351008439BF83410134A62
:10243000505415480078401C13490870019801F069
:1024400001FE0020BDE8FC9F8E00002084000020DB
:1024500083000020F01900209C0000209400002040
:10246000900000207800002080000020AC000020B8
:10247000A4000020A000002085000020860000208D
:1024800054610008980000208F000020019801F09E
:10249000D9FD4220BDE8FC9F2DE9F05F04460D46C2
:1024A00016461F464FF0000B2078052804D0012067
:1024B00038700020BDE8F09F06F08009B9F1000FE8
:1024C00004D026F080064FF0010A01E04FF0000A28
:1024D0000020387001F0B2FD83468EB3012E45D046
:1024E000022E02D0032E57D114E0208900EA0508FD
:1024F000A84509D1BAF1010F08D120896FEA080176
:1025000089B20840208101E070203870584601F0FF
:1025100099FD49E0208900EA0508B8F1000F09D0CB
:10252000BAF1010F08D120896FEA080189B2084089
:10253000208101E070203870584601F083FD33E0BF
:10254000FFE72089C04380B200EA0508A84507D10B
:10255000BAF1010F06D1208940EA0800208101E08C
:1025600070203870584601F06DFD1DE02089C04391
:1025700080B200EA0508B8F1000F07D0BAF1010FE8
:1025800006D1208940EA0800208101E070203870DF
:10259000584601F057FD07E0584601F053FD4FF053
:1025A00000086F20387000BF00BF404682E72DE969
:1025B000F04104460D460027FF48007820B1102066
:1025C00028700020BDE8F08101F038FD0746FB4887
:1025D000066886B100684068F849086005203070D8
:1025E000348100207060F6A0F060384601F02AFDCA
:1025F0000020287004E0384601F024FD7220287085
:102600003046DFE730B5436804682BB9C2685460D0
:102610002CB10025656002E01C6004B16360816834
:1026200000254D6230BDF0B504460D46A668002079
:10263000283670603580307A00F0DF00307200207C
:102640007072307A283E88B93436B078DD4909781E
:102650000843DC4908703078DB49085C717808432E
:1026600016F83419D84A5054012700E000272046B4
:10267000FFF7C8FF3846F0BD2DE9F04704460D4688
:1026800016464FF0000ACC48007820B10F20307079
:102690002046BDE8F0872078052803D0012030705F
:1026A0002046F6E701F0CAFC8246606808B10127BF
:1026B00000E0002715B1012D3CD119E08FB9C0A071
:1026C000E06000202070BD4800686060002020812C
:1026D000BA480460504601F0B5FC002030708046D6
:1026E00005E0504601F0AEFC49203070A04628E0DD
:1026F000D4F8049005E000214846FFF794FFD9F88C
:102700000090B9F1000FF6D1ADA0E060002020707C
:10271000AA480068606000202081A84804605046F4
:1027200001F090FC012F01D1FFF7EFFB002030708A
:10273000804606E0504601F085FC07203070A04638
:1027400000BF00BF4046A4E72DE9F04104460D4616
:10275000164600279848007820B1112030700020DC
:10276000BDE8F08101F06AFC07462078052806D014
:10277000384601F067FC012030700020F0E7E06887
:1027800028602868FFF7AFFD8046384601F05AFC04
:10279000002030704046E3E72DE9F04104460D4645
:1027A000164600278448007818B112203070BDE822
:1027B000F08101F043FC07462078052805D0384613
:1027C00001F040FC01203070F1E7E560384601F08F
:1027D00039FC00203070EAE7F0B5059D7B4F3F687B
:1027E00097F8307047F02007DFF8E0C1DCF800C050
:1027F0008CF830700027DFF8D4C1DCF800C08CF80A
:102800003170724F3F68FD62704F3F6879620A8293
:102810008B746E4F3F688F6047680F6000274F6072
:10282000C860466806B171604160684F3F6897F8BC
:102830003440654F3F5DDFF894C1DCF800C09CF880
:1028400035C06FEA0C0C0CF0FF0C07EA0C07DFF840
:1028500078C10CF8047067463F5D7FB95B4F3F68F5
:1028600097F83670FF43FFB2DFF858C19CF800C0FC
:1028700007EA0C07DFF84CC18CF80070F0BD2DE9B9
:10288000F04F89B004460D4616461F46DDF84880D5
:10289000002002904848007830B1022088F80000FB
:1028A000002009B0BDE8F08F4948007820B10D2024
:1028B00088F800000020F4E72078052804D00120E3
:1028C00088F800000020ECE706F0800003900398F1
:1028D00020B106F07F064FF0010B01E04FF0000B36
:1028E00001F0ACFB0290002E51D0012E63D0022EDD
:1028F00002D0032E6ED124E0208900EA0509A94503
:1029000014D1BBF1010F05D120896FEA090189B209
:10291000084020812D480068A0F82890029801F016
:1029200091FB002088F800004846BAE733462A4663
:1029300004A920460097FFF74FFF029801F082FBA1
:102940008BE0208900EA0509B9F1000F14D0BBF132
:10295000010F05D120896FEA090189B20840208161
:102960001A480068A0F82890029801F06BFB00203C
:1029700088F80000484694E733462A4604A92046D2
:102980000097FFF729FF029801F05CFB65E02089C2
:10299000C04380B200EA0509A94523D1BBF1010F6C
:1029A00003D1208940EA0900208108480068A0F886
:1029B000289002980FE020E08100002070000020A5
:1029C0003F000000850000208600002094000020C9
:1029D0008200002037E001F035FB002088F800007D
:1029E00048465EE733462A4604A920460097FFF78B
:1029F000F3FE029801F026FB2FE02089C04380B24D
:102A000000EA0509B9F1000F12D0BBF1010F03D1A3
:102A1000208940EA09002081BC480068A0F828907D
:102A2000029801F00FFB002088F80000484638E7C4
:102A300033462A4604A920460097FFF7CDFE0298A8
:102A400001F000FB09E0029801F0FCFA4FF00009E8
:102A50006F2088F80000484623E700BFFFF755FACB
:102A600001F0ECFA0290A948006890F8310038B300
:102A7000A648006890F831A00020A449096881F8B0
:102A8000310004A8FFF7BEFD0020A049096881F8C5
:102A90003000029801F0D6FA4FF00009BAF1010FA8
:102AA00007D0BAF1020F03D10E2088F8000004E02D
:102AB00000BF0A2088F8000000BF00BF4846F0E6CB
:102AC00092480068B0F82890BBF1010F1ED176B192
:102AD000012E0DD0022E02D0032E0ED100E000BF39
:102AE00020896FEA090189B2084020810DE000BF0A
:102AF000208940EA0900208107E0029801F0A2FA4B
:102B00006F2088F800000020CBE600BF029801F09B
:102B100099FA002088F800004846C2E670B5002502
:102B200001F08CFA054679480068048D284601F0CA
:102B300089FA204670BD2DE9FC5F04460D46164615
:102B40001F46002000902078052804D0012038700E
:102B50000020BDE8FC9F01F071FA009016B1012E33
:102B60000AD105E02089E94389B2084020810AE0C2
:102B700020892843208106E0009801F063FA712043
:102B800038700020E5E700BF4FF00009D4F804805A
:102B900065E098F8120068B3012841D0022802D0FD
:102BA000032852D113E02089B8F8101000EA010A76
:102BB000B8F81000504509D151464046FFF733FDA3
:102BC0008346BBF1010F01D14FF0010944E0208998
:102BD000B8F8101000EA010ABAF1000F09D0514606
:102BE0004046FFF720FD8346BBF1010F01D14FF0B6
:102BF000010931E02089C04380B2B8F8101000EA22
:102C0000010AB8F81000504509D151464046FFF777
:102C10000AFD8346BBF1010F01D14FF001091BE012
:102C20002089C04380B2B8F8101000EA010ABAF156
:102C3000000F09D051464046FFF7F5FC8346BBF133
:102C4000010F01D14FF0010906E0009801F0FAF9F7
:102C50006F20387000207CE700BFD8F80080B8F102
:102C6000000F96D1009801F0EDF9B9F1010F01D1F3
:102C7000FFF74BF901F0E2F90090208901900098EC
:102C800001F0E0F900203870019862E72DE9F04189
:102C900004460D4600272078052804D0012028701E
:102CA0000020BDE8F08101F0C9F9074626893846C1
:102CB00001F0C8F9002028703046F2E72DE9F04114
:102CC00050211348FFF710F800240EE0601C85B275
:102CD0000F4800EB041600EB0517002030707760FA
:102CE000AFF22430F060601C84B2042CEED30848AC
:102CF00000EB0416002030707060AFF23C30F060E2
:102D0000034804490860BDE8F081000094000020F9
:102D1000A0150020700000202DE9F04104460D466A
:102D20004FF000082078022804D0012028700020ED
:102D3000BDE8F08101F082F980466768F88A78B1D1
:102D40003969081D38610E68F88A401EF882B96832
:102D50003869884201D1786838610020287002E023
:102D60001F2028700026404601F06CF93046DFE74E
:102D70002DE9F04104460D464FF00008FA4800786E
:102D800010B10020BDE8F08101F058F98046F74805
:102D90000668006820B1F54800684068F34908609B
:102DA000404601F04FF93EB301F048F98046F04843
:102DB0000768C7B100680068ED490860404601F047
:102DC00041F97C6004EB8500B860FC603C61BD8229
:102DD0000020F88202203070002030817760304679
:102DE000FFF76AFA08E0E14800687060DF480660B3
:102DF000404601F027F900263046C3E72DE9F047A9
:102E000004460D4616464FF0000A2078022804D0EA
:102E1000012030702046BDE8F087D348007818B113
:102E20000F2030702046F6E701F008F98246A07ABC
:102E300008B1012700E0002715B1012D48D120E09D
:102E4000C7B9D4F80480CA480068C8F80000C84868
:102E5000C0F8008000202070C44800686060002036
:102E60002081C2480460504601F0ECF80020307028
:102E7000814605E0504601F0E5F849203070A14652
:102E80002DE005E00023042219462046FFF797F9BC
:102E9000A07A0028F6D1D4F80480B5480068C8F8B4
:102EA0000000B348C0F8008000202070AF480068E0
:102EB000606000202081AD480460504601F0C2F8F7
:102EC000012F01D1FFF721F800203070814606E084
:102ED000504601F0B7F807203070A14600BF00BF90
:102EE000484698E770B50446002601F0A7F8064664
:102EF00065686868E860686828610020E882304694
:102F000001F0A0F8002070BD2DE9F04704460D4601
:102F100016464FF000092078022804D001203070B6
:102F20000020BDE8F0879048007818B1022030708A
:102F30000020F6E78F48007818B10D20307000208F
:102F4000EFE701F07BF88146D4F80480B8F816006A
:102F5000D8B1D8F81010081DC8F810000F68B8F8DC
:102F60001600401EA8F81600D8F80810D8F810006F
:102F7000884203D1D8F80400C8F81000484601F090
:102F800061F8002030703846CBE77B48006890F845
:102F9000300040F004007849096881F830000020D2
:102FA0007549096881F8310073480068C562204698
:102FB000FFF746F9484601F045F8FEF7A6FF01F095
:102FC0003DF881466C48006890F8310020B1012836
:102FD0000DD002280AD105E067480068076A002082
:102FE00030700DE000270E20307009E000BF214650
:102FF00061480068FFF7CBF800270A20307000BF57
:1030000000BF00205C49096881F830005A4909680E
:1030100081F8310058490968C86157490968086250
:10302000484601F00FF838467BE72DE9F0410446A9
:103030000D4616464FF000082078022804D00120E3
:1030400030700020BDE8F08100F0F8FF8046A07AE3
:1030500020B300277DB1012D0CD107E0022304220B
:1030600000212046FFF7ABF8781CC7B2A07A0028F1
:10307000F4D109E000BF0223042200212046FFF71B
:103080009EF8781CC7B200BF00BF404600F0DAFFD0
:10309000FEF73BFF0E2030703846D3E7404600F085
:1030A000D1FF00203070CDE72DE9F04104460D46F8
:1030B00000272078022802D00120BDE8F08100F02E
:1030C000BDFF0746A07A60B10023042229462046AE
:1030D000FFF775F8384600F0B5FFFEF716FF002041
:1030E000EBE76668F08AB18A884204DB384600F074
:1030F000A9FF1E20E1E7F168081DF0600D60F08A6D
:10310000401CF082D6E90210884201D17068F0605C
:10311000384600F097FF0020CFE72DE9F041044644
:103120000D4600272078022802D00120BDE8F0815A
:1031300000F084FF0746A07A60B1002304222946EC
:103140002046FFF73CF8384600F07CFFFEF7DDFE36
:103150000020EBE76668F08AB18A88420EDB3846C9
:1031600000F070FF1E20E1E7810000206C000020CD
:10317000A8000020820000209400002071683069BF
:10318000884201D1B06830613069001F3061306918
:103190000560F08A401CF082384600F053FF0020A2
:1031A000C4E72DE9F04104460D4616464FF00008ED
:1031B0002078022802D00120BDE8F08100F03EFF17
:1031C0008046A07AE8B116F0010F0AD005E000238E
:1031D000042229462046FEF7F2FFA07A0028F6D105
:1031E00005E00023042229462046FEF7E8FF40467A
:1031F00000F028FF16F0040F01D1FEF786FE002034
:10320000DAE76768F88AB98A884204DB404600F04A
:1032100019FF1E20D0E716F0020F0BD0796838692D
:10322000884201D1B86838613869001F386138694F
:10323000056009E0F968081DF8600D60D7E9021023
:10324000884201D17868F860F88A401CF8824046CC
:1032500000F0F8FE0020AFE72DE9F04704460D46E8
:103260004FF0000A2078022802D00120BDE8F08744
:1032700000F0E4FE8246A07A287404F10B0805F100
:103280000809002705E018F8010B09F8010B781C64
:10329000C7B2082FF7D36668F08A18B130690068A2
:1032A000286001E000202860F08AA880B08AE880C9
:1032B000504600F0C7FE0020D8E72DE9F041782104
:1032C0001048FEF711FD00240DE0601C85B204EBF0
:1032D00044000C4901EBC00705EB450001EBC006BB
:1032E0003E60601C84B2042CEFD304EB440005491B
:1032F00001EBC00700203860084603490860BDE8BC
:10330000F0810000E01E0020A800002070B50446F7
:1033100000262078032801D0002070BD00F08EFE2A
:103320000646258915B12089401E2081304600F0CF
:1033300089FE2846F1E770B504460026CF4800789C
:1033400008B1002070BD00F079FE0646CC48056843
:10335000006820B1CA4800684068C9490860304622
:1033600000F070FE3DB1032028702C8100206860C1
:103370002846FEF7A1FF2846E4E72DE9F04704467A
:103380000D4616464FF000092078032804D001208E
:1033900030702046BDE8F087B848007818B10F209B
:1033A00030702046F6E700F049FE8146A07A08B169
:1033B000012700E0002715B1012D35D117E07FB9B5
:1033C00000202070AE480068606000202081AC487A
:1033D0000460484600F036FE00203070804605E06C
:1033E000484600F02FFE49203070A04623E005E05B
:1033F0000023012219462046FEF7E1FEA07A0028AC
:10340000F6D120709E4800686060002020819C48B2
:103410000460484600F016FE012F01D1FEF775FD4D
:1034200000203070804606E0484600F00BFE072082
:103430003070A04600BF00BF4046ABE72DE9F04129
:1034400004460D46164600272078032803D00120A5
:103450003070BDE8F0818948007810B102203070EA
:10346000F7E78848007810B10D203070F1E700F0E0
:10347000E5FD0746208940B12089401E208138465D
:1034800000F0E0FD00203070E3E77F48006890F82E
:10349000300040F001007C49096881F830000020CC
:1034A0007949096881F8310077480068C56220468B
:1034B000FEF7C6FE384600F0C5FDFEF726FD00F01B
:1034C000BDFD07467048006890F8310020B1012822
:1034D00009D0022806D102E0002030700BE00E2057
:1034E000307008E000BF214667480068FEF74FFED5
:1034F0000A20307000BF00BF00206349096881F8CE
:1035000030006149096881F831005F490968C86184
:10351000384600F097FD9CE72DE9F04104460D4642
:1035200016464FF000082078032804D001203070A0
:103530000020BDE8F08100F081FD8046A07A20B334
:1035400000277DB1012D0CD107E0022301220021CB
:103550002046FEF734FE781CC7B2A07A0028F4D1CA
:1035600009E000BF0223012200212046FEF727FECA
:10357000781CC7B200BF00BF404600F063FDFEF7F5
:10358000C4FC0E2030703846D3E7404600F05AFDA8
:1035900000203070CDE770B5044600252078032860
:1035A00001D0012070BD00F049FD0546A07A60B150
:1035B0000023012219462046FEF701FE284600F0AE
:1035C00041FDFEF7A2FC0020ECE720894FF6FF71D9
:1035D000884207D22089401C2081284600F032FD15
:1035E0000020DFE7284600F02DFD3320DAE72DE943
:1035F000F04704460D464FF000092078032802D01A
:103600000120BDE8F08700F019FD8146A07AA8727C
:1036100004F10B0605F10208002705E016F8010B7E
:1036200008F8010B781CC7B2082FF7D3208928802F
:10363000484600F007FD0020E3E72DE9F04104468D
:103640000D46164600272078032803D0012030704D
:10365000BDE8F08100F0F2FC0746002030702089C0
:1036600008B1258105E0A07A08B9258101E049204B
:103670003070384600F0E6FCEAE7000081000020E8
:103680006C00002082000020940000202DE9FF5FE4
:1036900004460D460020009000F0D0FC0090F84851
:1036A00050F8250030B1009800F0CCFC282004B080
:1036B000BDE8F09FFF2C03D1F248006890F832403B
:1036C000EF4850F8247027B9009800F0BBFC29207F
:1036D000EDE7012F04D1009800F0B4FC4320E6E7A9
:1036E0004FEAE50805F00709012000FA08F000F0AC
:1036F000FF0A012000FA09F0C0B202900020E04960
:1037000041F82400084640F8257097F834000390EB
:1037100097F83600019097F835B0DB490398085CBC
:1037200010EA0B0F23D008460399405C6FEA0B01A7
:10373000C9B20840D44A0399505411460398085C12
:1037400038B9D24800780199C943C9B20840CF4975
:103750000870CE48007840EA0A00CC490870CA4890
:1037600010F8080002990843C74901F80800FE69EB
:1037700016B306F10B000399415C6FEA0B00C0B26F
:10378000014006F10B00039A81540399405C28B96B
:10379000B07A0199C943C9B20840B072B07A40EA20
:1037A0000A00B07206F10B0010F8081002980143ED
:1037B00006F10B0000F8081087F8325087F83480C3
:1037C00087F8339087F836A0029887F8350000987C
:1037D00000F038FCAE480078012801D1FEF795FBD7
:1037E000002064E72DE9FE4F04460D461646984634
:1037F0004FF0000900F022FC8146A648007828B16D
:10380000484600F01FFC3C20BDE8FE8F9C4850F865
:10381000280058BB01209A4941F82800484600F08A
:1038200011FC002332462946204600F067FC824600
:103830000023009301931A46514640460293FEF737
:103840005CFD074637B99248007801280CD1FEF795
:103850005CFB09E000F0F2FB81460020884941F85A
:103860002800484600F0EEFB3846CDE7484600F019
:10387000E9FB2820C8E712F0010F08D012F0020F70
:1038800005D002E0491E002308C00029FAD1704784
:103890002DE9F04F87B004460D4616461F46DDE978
:1038A00012ABDDE910890020049000F0C7FB049002
:1038B0007848007830B1049800F0C4FB3C2007B091
:1038C000BDE8F08F6E4850F82700002832D1012063
:1038D0006B4941F82700049800F0B4FB5146484674
:1038E000149AFFF7C8FF324629462046149B00F081
:1038F00005FC0690149BCDE900AB029343464A4673
:1039000038460699FEF7F9FC0590059830B96048ED
:10391000007801280CD1FEF7F8FA09E000F08EFBE0
:1039200004900020564941F82700049800F08AFBD3
:103930000598C4E7049800F085FB2820BFE72DE92F
:10394000F041044600275348007810B14020BDE8FC
:10395000F0813F2C01D13E20F9E700F06FFB0746D4
:10396000FF2C03D14748006890F83240444850F893
:10397000246026B9384600F065FB4320E7E7012EB6
:1039800004D1384600F05EFB3D20E0E716F8340F26
:103990003D49085C7178C943C9B2084031783A4A58
:1039A000505416F834091146085C40B996F83600B0
:1039B000C043C0B235490978084034490870F069FD
:1039C00018B13046F169FEF7E2FB756A15B1284679
:1039D000FEF718FE0020F06286F8300086F831000D
:1039E0002D480078FF2804D22B480078401C2A4933
:1039F0000870384600F026FBFEF7C8FB00F01EFBFF
:103A000007462548007820B123480078401E224907
:103A10000870304600F06FFB20480078401E1F49B8
:103A200008700020164941F82400B06930B9002020
:103A3000716988611A497069086005E0D6E9050175
:103A40004861D6E90510886116480068706115481C
:103A5000066015A0F064384600F0F4FA0C480078CF
:103A6000012801D1FEF751FA002070E72DE9F0415D
:103A7000044600273F2C19D13E20BDE8F08100000C
:103A8000F01900209400002086000020850000200E
:103A90008E00002081000020820000208F00002086
:103AA000A0000020980000203F000000FF2C0CD157
:103AB00000F0C4FA0746EE48006890F837503846E0
:103AC00000F0C0FA2846BDE8F08100F0B7FA0746DA
:103AD000E84850F8246026B9384600F0B3FA43208D
:103AE000F1E7012E04D1384600F0ACFA3D20EAE7B8
:103AF0003F2086F83700384600F0A4FA0020E2E7BD
:103B00002DE9F04704460D4616464FF00008DA4806
:103B1000007820B1112030700020BDE8F08700F05F
:103B20008DFA8046FF2C03D1D148006890F83240CE
:103B3000D04850F8247037B9404600F083FA43204B
:103B400030700020E9E7012F06D1404600F07AFAF4
:103B5000432030700020E0E7F86C28602868FEF70A
:103B6000C2FB8146404600F06DFA002030704846A6
:103B7000D3E72DE9F04104460D4616464FF0000804
:103B8000BD48007818B112203070BDE8F08100F017
:103B900055FA8046FF2C03D1B548006890F83240B2
:103BA000B44850F824702FB9404600F04BFA432037
:103BB0003070EAE7012F05D1404600F043FA432078
:103BC0003070E2E7FD64404600F03CFA00203070BF
:103BD000DBE770B50446002600F030FA0646A5483B
:103BE00050F8245025B9304600F02CFA462070BD1C
:103BF000012D04D1304600F025FA4320F7E795F86F
:103C0000300010F0080F2CD015F8300F00F0F7003E
:103C1000287015F83009F8B9E86AC8B93435A878B9
:103C20009649097808439549087028789449085CB2
:103C30006978084315F83419914A5054304600F019
:103C400001FA90480078012809D1FEF75EF906E0F4
:103C5000304600F0F7F902E0304600F0F3F90020BA
:103C6000C5E7304600F0EEF94420C0E72DE9F04703
:103C700004460D464FF0000A00202860686000F0FE
:103C8000DDF98246FF2C03D17948006890F8324074
:103C9000784850F824602EB9504600F0D3F94320FC
:103CA000BDE8F087012E04D1504600F0CBF9432047
:103CB000F6E7308A10F0010F04D1504600F0C2F947
:103CC0004520EDE74FF00008D6F80C90B768504655
:103CD00000F0B8F901E008F1010802CF0029FAD09C
:103CE0004FEA88002860A9EB080080006860002087
:103CF000D6E72DE9F04104464FF0000800F09EF9A8
:103D00008046FF2C05D15A48006890F832400125C2
:103D100008E05748006890F83200A04201D1012520
:103D200000E00025534850F824702FB9404600F0B9
:103D300089F94820BDE8F081012F04D1404600F008
:103D400081F94320F6E797F834604D48805D97F895
:103D50003510C943C9B20840494988550846805DB5
:103D600040B997F83600C043C0B2444909780840CA
:103D70004249087097F8300040F0080087F830009A
:103D8000404600F05FF9012D01D1FEF7BEF800209A
:103D9000D0E72DE9F04104460D46002700F04EF92A
:103DA0000746FF2C03D13248006890F83240314872
:103DB00050F824602EB9384600F044F92920BDE8B7
:103DC000F081012E04D1384600F03CF94320F6E79B
:103DD000542231462846FEF77CFA384600F032F984
:103DE0000020ECE72DE9F04704460D461646002773
:103DF00000F024F90746FF2C03D11D48D0F80080BD
:103E000002E01C4850F8248008F1500050F825903A
:103E1000384600F017F9002030704846BDE8F087BA
:103E20002DE9F04704460D46164698464FF0000926
:103E300000F004F98146FF2C02D10D48076802E02A
:103E40000C4850F8247007F1500040F825604846AF
:103E500000F0F8F8002088F80000BDE8F08710B501
:103E60000348006800F09AF9FF20FFF768FD10BDD5
:103E700094000020F019002081000020850000201F
:103E8000860000208E00002070B50446002664489D
:103E9000007800B170BD6348007800B1FAE73CB328
:103EA00000F0CCF806466048006890F834505F484F
:103EB000405D5D49096891F83510C943C9B20840B1
:103EC0005A4948550846405D50B95748006890F82F
:103ED0003600C043C0B256490978084054490870BA
:103EE00051480068C462304600F0ACF8FEF70DF8A7
:103EF000D0E72DE9F04104460D4616461F464848D6
:103F0000007810B15520BDE8F0814648007808B12E
:103F10003220F8E74FF47A7107FB01F0B0FBF1F1C2
:103F20004FF461606043C5EB051200EB8200304442
:103F300000EB4002C2EBC01001EBC0084046FFF7A7
:103F4000A3FF0020DFE770B5044600263F2C01D315
:103F50002A2070BD00F072F80646364850F824500A
:103F600025B9304600F06EF84320F2E7012D04D168
:103F7000304600F067F84320EBE7E86A20B93046A6
:103F800000F060F85020E4E70020E86295F8300087
:103F900010F0370F08D015F8300F20F037002870D8
:103FA00001206870303D02E0002085F8310095F86E
:103FB000300010F0080F15D13435A8781C49097865
:103FC00008431B49087028781849085C6978084339
:103FD00015F83419154A5054304600F033F8FDF7FF
:103FE00094FF02E0304600F02DF80020B1E770B5F4
:103FF000002500F023F805460F480468284600F025
:1040000021F8204670BD70B50446002500F016F872
:10401000054609480460284600F014F870BD000009
:1040200081000020820000209400002086000020F3
:1040300085000020F0190020AC000020EFF3108074
:1040400072B6704780F310887047204C204D256071
:104050004FF0000484F309881E4C4FF001052570D1
:104060001D4C4FF08055256062B6FEE730B41A4C07
:104070004FF08055256030BC704730B4164C4FF07F
:104080008055256030BC704700BF72B6EFF30980E1
:1040900028B1203880E8F00F10490968086000B5A1
:1040A0000F4880475DF804EB0E480F490A7802700C
:1040B0000A480E490A680260106890E8F00F203044
:1040C00080F309884EF0040E62B6704720ED00E0E0
:1040D0000000FFFF8E00002004ED00E094000020AF
:1040E0009741000883000020840000209C000020ED
:1040F00070477047704770477047704770B5044607
:1041000010464FF080750560051F28462C606FF043
:104110000105061F304635604FF01235061F304648
:1041200035604FF00335061F304635604FF00235DD
:10413000061F304635606D10061F30463560051F7E
:10414000284629604FF01135061F304635604FF084
:104150001035061F304635604FF00935061F3046D2
:1041600035604FF00835061F304635604FF0073593
:10417000061F304635604FF00635061F3046356065
:104180004FF00535061F304635604FF00435061FE9
:104190003046356070BD7047704770477047704754
:1041A0000FB4054A054910B503AB7944029800F0F5
:1041B0009AFB10BC5DF814FB50000020B5CAFFFF4D
:1041C0002DE9F0418046002610687529414614A566
:1041D00011D0AFF30080002802DA404211A508E0B8
:1041E000D8F800108A0701D50FA502E0490704D5C9
:1041F0000EA5012601E0AFF30080002408F124079A
:1042000004E000F0B5FB30313955641C0028F8D1CA
:1042100033462A4621464046BDE8F04100F0E2B868
:10422000000000002D0000002B0000002000000016
:104230002DE9F05F4FF0000B044689464FF0010A6C
:10424000C0F820B02046E168884700287DD02528A6
:1042500002D0D4E9012173E0E168204600268847B6
:10426000C4F81CB005460027C4F818B02A2D10D198
:10427000204659F8041B04EB87029161E1688847E6
:10428000012F054627D1E06900282FDA26F0200605
:104290002CE0A5F1300052460A28014619D2C2B1DD
:1042A00004EB870092468046816108E0D8F8180048
:1042B00000EB800005EB40003038C8F818002046BD
:1042C000E16888470546303851460A2801D200295E
:1042D000ECD1012F0AD02E2D08D12046E168884765
:1042E0007F1C0546022F46F02006BFDBA069002890
:1042F00003DA404246F00106A061F00701D026F043
:104300001006CDB1A5F14100192802D8203546F498
:1043100000664A462946204626604E46FBF742FF85
:1043200058B1012802D106F104098BE7F61D26F0E9
:10433000070000F1080985E707E0D4E901212846D4
:104340009047206A401C20627CE7206ABDE8F09F0D
:10435000032A40F2318010F0030C00F0158011F8B0
:10436000013BBCF1020F624498BF11F801CB00F889
:10437000013B38BF11F8013BA2F1040298BF00F8DD
:1043800001CB38BF00F8013B11F0030300F0BE82FF
:10439000083AC0F0098051F8043B51F804CB40F8CA
:1043A000043B40F804CBF3E7121D5CBF51F8043B1B
:1043B00040F8043BAFF30080D20724BF11F8013B63
:1043C00011F801CB48BF11F8012B24BF00F8013BC5
:1043D00000F801CB48BF00F8012B704770477047C9
:1043E000704770472DE9F0470D46044692469946BE
:1043F00000F124080168880604D5E06921F0100165
:10440000216000E001200027A84200DD471BA169D0
:104410007A1902EB0900081AA0612068C00602D4CC
:104420002046AFF30080002608E0D4E901211AF805
:1044300006009047206A401C761C20624E45F4DB43
:104440002068C0060AD52046AFF3008006E0D4E914
:10445000012130209047206A401C2062381EA7F1BD
:104460000107F4DC07E0D4E9012118F805009047C2
:10447000206A401C2062281EA5F10105F3DC2046BD
:10448000AFF3008021680220090600D40120BDE8B6
:10449000F08770472DE9FF4F0C4698468DB0D2E962
:1044A0000010DDF868A0CDE90810C0F30A550DB979
:1044B0004FF0FF35002108464FF00000099900F445
:1044C0004000002905DA00EB80004FF4400101EACA
:1044D00050004FEA905BBBF1010F01DD4FF0FF3B55
:1044E000DDE9080150EA410016D1BAF1010F02D10D
:1044F0006FEA080207E0302101E02154401C4045EA
:10450000FBDB40460022002121540D99C1E9010A3C
:104510000A6011B0BDE8F08FA5F2FF3544F61050E7
:104520004543CBF100000B904FEA2549BAF1000F4B
:1045300003D1A9EB08056D1C01E0C8F100050B9A39
:10454000002D00DC5A46294601DAC5F1000103A816
:1045500000F0A0FADDE9081000F074FBA0F50050AF
:104560001F388DE807000398002D09DD42F21F0176
:104570005A46084403A90390684600F0D4FD08E0B9
:10458000A0F500505A461F3803A90390684600F072
:10459000DEFD8DE807000004000C03D04FF0FF356E
:1045A0006E0801E00E461546BAF1000F25D14746C8
:1045B00007E03146284600F0E9F9303205460E465C
:1045C000E2557F1EF5D50023012786EA030185EA1F
:1045D00003000843CDF81C8003D0002709F1010037
:1045E00005E02078302803D10027A9F10100814699
:1045F000002FCDF8189099D034E000200A9007469B
:104600000AE0112F0FDA3146284600F0BFF93032A8
:1046100005460E46E2557F1C002386EA030185EA23
:1046200003000843EDD1002386EA030185EA030075
:10463000084310D13846002104E0235C625C6354D7
:10464000491C2254401E8142F7DBA7EB0800401EA4
:10465000CDE9060706E00A9820B94FF011084FF09F
:10466000000A63E7079A0020A0540D98C0F808A03C
:1046700007994160069901604BE72DE9F04F044628
:104680008846D21D22F0070091B0D0E90010CDE994
:1046900002100146029800F090FE0399CA0F4FF0F5
:1046A0002D0106D122682B21930702D4202101EA93
:1046B000C20103288B4601D0072806DB5B46024671
:1046C0004146204600F0A8F905E12068800601D5A2
:1046D000E76900E006271120B8F1650F1ED0B8F198
:1046E000660F29D0B8F1670F62D1012F00DA0127D8
:1046F0000023112F009300DC3846034602AA06A9C6
:104700000EA8FFF7C7FE20683D460026000734D4F8
:104710000F98A84200DA054606A827E00023112FCB
:10472000009300DA781C034602AA06A90EA8FFF738
:10473000B1FE00267D1C26E001234FF0004902AAAD
:1047400006A90EA800933B46FFF7A4FEDDE90F5033
:10475000002610B90E99781C0D18781B02D47D1C08
:10476000C0F1FF36A5EB070A22E06D1E012D04DD26
:10477000411911F8011C3029F7D00E98B84202DA1D
:1047800010F1040F03DA4FF0010A0E980FE0002831
:1047900002DC2D1A064404E0401CA84201DD0E9DF7
:1047A0006D1C0E98801B00F1010A4FF000408146FD
:1047B0002068000703D4AA4501DB4FF0FF3A002030
:1047C000B9F1004F0DF117078DF8170024D04FF005
:1047D00002082B20B9F1000F01900BDA2D20C9F14E
:1047E0000009019006E0484600F0C2F830318146E9
:1047F00007F8011DB8F10000A8F10108F3DCB9F1D8
:10480000000FF0D1019807F8010D21684520090536
:1048100000D4652007F8010D04A8C01B00F10708AB
:104820005FEA0B0000D00120411901EBEA7101EBB6
:104830000800A169081A401EA0612068C00602D4C1
:104840002046AFF30080BBF1000F06D05846D4E9F4
:1048500001219047206A401C20622068C00625D5AF
:104860002046AFF3008021E0002E07DB0F98B04216
:1048700004DD06A8D4E90121805D02E0D4E901212C
:1048800030209047206A401C2062761CAAF101006B
:104890005FEA000A0AD100F073F8C0680168405C62
:1048A000D4E901219047206A401C2062281EA5F10E
:1048B0000105D9DC07E0D4E9012117F8010B904785
:1048C000206A401C2062B8F10000A8F10108F2DC67
:1048D0002046AFF3008002201BE6000001694A1C5D
:1048E00002610878704710B50C46194690B0CDE9C2
:1048F000024200220692044A7A44CDE9042001A82B
:10490000FFF796FC10B010BDE1FFFFFF10B5203A95
:10491000C0F00B80B1E81850203AA0E81850B1E878
:104920001850A0E81850BFF4F5AF5FEA027C24BF2E
:10493000B1E81850A0E8185044BF18C918C0BDE825
:1049400010405FEA827C24BF51F8043B40F8043BEE
:1049500008BF7047D20728BF31F8023B48BF11F8A3
:10496000012B28BF20F8023B48BF00F8012B7047FD
:104970004FF00A01B0FBF1F202FB11011046704743
:104980000148704770470000781F002030B5B0F133
:104990000A024FEA900E71F100034EEA817EB0EBFD
:1049A0000E0061EB91014FEA101E4EEA017E10EB02
:1049B0000E0041EB11114FEA102E4EEA016E10EB82
:1049C0000E0041EB11214FEA104E4EEA014E10EB62
:1049D0000E0041EB1141401841F100014FEAD000B7
:1049E00040EA41704FEAD10110EB80054FEA8104A3
:1049F00044EA907444EB01046D1944EB0404521B27
:104A0000A3414FF0000348BF0A3200D530BD401C1F
:104A100041F1000130BD00002DE9F04104461F4680
:104A200003260168072A01F4006003DB15A520B9FD
:104A300015A502E015A500B915A521F0100020600C
:104A4000A069C01EA0610FB1401EA0612046AFF357
:104A500000800FB9206A06E0D4E90121384690476A
:104A6000206A401C2062C01C206204E0D4E90121BD
:104A700015F8010B9047761EF8D22046AFF3008060
:104A8000BDE8F0814E414E006E616E00494E460019
:104A9000696E66002DE9F047174681468AB0304AB4
:104AA0007A4407A838CA01F5DC511B3138C038CA2E
:104AB00004A8372238C091FBF2F0A0F1800502FB78
:104AC00010141B3C02D56442012000E00020DFF8F6
:104AD00090A080460026FA44AAF1B20A0DE0E00751
:104AE00009D03A4606EB46000AEB800107A800F021
:104AF0002EFB07AB07C36410761C002CEFD1DFF848
:104B000060A001AEFA44AAF1A40A16E0E80712D0A8
:104B10000AEB041090E80E0086E80E00C068F84228
:104B200002D10398384403903A4601A904A800F042
:104B30000EFB04AB07C36D10641C002DE6D13A4692
:104B4000B8F1000F07A904A802D000F0ECFA01E0C8
:104B500000F0FDFAA9E807000AB0BDE8F087000000
:104B60002C18000000487047581F00207546FFF7BA
:104B7000F9FFAE4605006946534620F0070085461A
:104B800018B020B5FCF71EFABDE820404FF0000633
:104B90004FF000074FF000084FF0000B21F0070125
:104BA000AC46ACE8C009ACE8C009ACE8C009ACE868
:104BB000C0098D4670470446AFF300802046FBF7DE
:104BC00010FB00004FF0013C50F8042B51F8043B5F
:104BD0009A4221D1A2EB0C03934313EACC1317D1D1
:104BE00050F8042B51F8043B9A4215D1A2EB0C0368
:104BF000934313EACC130BD150F8042B51F8043B28
:104C00009A4209D1A2EB0C03934313EACC13DBD0F5
:104C10004FF0000070470000D01A01BAB1FA81F1DC
:104C200001F0180122FA01F0CB40C1F12001DBB202
:104C3000C0B2C01A2CFA01F3D11A914311EAC31180
:104C4000E6D170475FEA400C08BF91F0000F4FEAD1
:104C50008C234FEAC12243EA51514FEA1C5018BF3E
:104C600000F5F0404FEA300018BF41F000415FEA24
:104C70006C5C00F02980BCF1FF3F08BF40F0804031
:104C80007047130C06BF12044FF0100C4FF0000CCD
:104C9000130E04BF12020CF1080C130F04BF120113
:104CA0000CF1040C930F04BF92000CF1020CD30F13
:104CB00004BF52000CF1010C11464FF00002A0F1AC
:104CC0001F00A0EB0C00704711F0004F08BF7047A9
:104CD00031F000413FF4D5AF0B0C06BF09044FF093
:104CE000100C4FF0000C0B0E04BF09020CF1080C65
:104CF0000B0F04BF09010CF1040C8B0F04BF8900DA
:104D00000CF1020CCB0F04BF49000CF1010CCCF1EB
:104D10002003A0EB0C0022FA03F302FA0CF241EAA2
:104D2000030100F10100704720F07F4C80EA03008E
:104D300023F07F47ACEB070303F57C5300F0004002
:104D400003F1FF032DE980494FEA154B09B44FEAFF
:104D5000144325EA0B4E24EA03480FF2042606EB1F
:104D6000132749083E785FEA320203FB0667C7F55E
:104D7000000707FB06F64FEA54374FEAD64606F11E
:104D8000020607FB066CCCF1005C4FEA1C472CEADC
:104D9000074C07FB06F40CFB06F504EB15464FEA3F
:104DA000961634BF00204FF000404FEAD13706FB83
:104DB00007FC4FEA1C4C0CFB0BF7D21B03FB0CF758
:104DC00061EB07010CFB0EF7B0EB074072EB1742EB
:104DD0000CFB08F734BFA2EB0742B2EB074261EBD2
:104DE00017414FEA0C444FEA910706FB07FC4FEAD4
:104DF0001C4C0CFB0BF7B0EBC74072EB573203FBBC
:104E00000CF734BFA2EBC742B2EBC74261EB57319C
:104E10000CFB0EF7B0EBC70072EB57720CFB08F7F8
:104E200034BFA2EBC702B2EBC70261EB5771039F1D
:104E30004FEA816141EA921104EBCC044FEAD13789
:104E40004FEA826206FB07FC42EA90124FEA80605A
:104E50004FEA1C4C0CFB0BF7D21B03FB0CF761EB6E
:104E600007010CFB0EF7B0EB074072EB17420CFB8F
:104E700008F734BFA2EB0742B2EB074261EB1741E0
:104E80004FEA8C554FEA910704EB9C2406FB07FC84
:104E90004FEA1C4C0CFB0BF7B0EBC74072EB5732E0
:104EA00003FB0CF734BFA2EBC742B2EBC74261EB86
:104EB00057310CFB0EF7B0EBC70072EB57720CFBCF
:104EC00008F734BFA2EBC702B2EBC70261EB577120
:104ED00015EB4C254FEA816141EA92114FEA82625B
:104EE0004FEAD13742EA901206FB07FC44F1000476
:104EF0004FEA80604FEA1C4C0CFB0BF7D21B03FB04
:104F00000CF761EB07010CFB0EF7B0EB074072EBFF
:104F100017420CFB08F734BFA2EB0742B2EB074283
:104F200061EB174115EB1C154FEA813141EA9241C3
:104F30004FEA823242EA90424FEA80304FEA0C76E2
:104F400044F1000448EA03434EEA0B484FF0000ED8
:104F5000B2EB080C71EB030724BF624639464EEBF7
:104F60000E0E4FF0000B0018524149414BEB0B0B5A
:104F7000B2EB080C71EB03077BF1000B24BF624618
:104F800039464EEB0E0E4FF0000B001852414941CE
:104F90004BEB0B0BB2EB080C71EB03077BF1000B37
:104FA00024BF624639464EEB0E0E51EA020718BF87
:104FB00046F0010616EB0E7655F1000254F10001A1
:104FC00003D5BDE88901BDE80088BDE88901BDE8D9
:104FD0000048B619524141EB0101A3F101037047AA
:104FE00080807F7E7D7C7B7A797877767675747326
:104FF000727171706F6E6E6D6C6C6B6A6A696868E5
:10500000676666656464636362616160605F5F5E7A
:105010005E5D5D5C5C5B5B5A5A59595858575756F0
:105020005655555554545353525252515150505055
:105030004F4F4F4E4E4D4D4D4C4C4C4B4B4B4A4AA7
:105040004A494949484848474747474646464545EB
:105050004544444444434343434242424241414124
:10506000002B26D4770021D01CB54FEA370703B4B4
:105070004FF010004FF010014FF000000FBCBDE8E2
:1050800010400BF1010BBBF1010F08BF5FEA1707DE
:1050900022BF12F1010211F101014FF0004143F171
:1050A000000300F0004043EA00007047F9D35708BE
:1050B000DAE746EA064613F1400F4FEA16461FDDCF
:1050C00013F1200FDFBF16430A46002120335B4255
:1050D000C8D0C3F1200746EA064602FA07F74FEAAE
:1050E000164646EA0706C3F1200722FA03F201FA40
:1050F00007F721FA03F14FF0000342EA0702B1E794
:1051000046EA020646EA06464FEA164646EA01061F
:10511000BCBF46EA0646360C4FF000034FF00002D3
:105120004FF000019EE72DE9C048934630B491E866
:10513000380007C831EA400C48BF34EA430C03D5B5
:10514000FFF7F2FDFFF78CFFF0BCBDE800882DE90A
:10515000C048934630B491E8380007C810F0804F3B
:1051600008BF13F0804F03D100F005F8FFF778FF78
:10517000F0BCBDE8008820F07F4780EA030023F000
:105180007F4C07EB0C03A3F57C5300F00040A3F128
:10519000FE0392F0000F00F0B38095F0000F00F0D6
:1051A00077802DE901494FEA11404FEA144621EA80
:1051B000004800FB06FC24EA064708FB06F607FB4E
:1051C00008F800FB07F718EB06484CEB164C4FEAC3
:1051D000124B18EB07484FEA15464CEB174022EAF2
:1051E0000B4E0BFB06FC25EA06470EFB06F607FBFB
:1051F0000EFE0BFB07F71EEB064E4CEB164C4FF06A
:1052000000061EEB074E4CEB174B18EB0B0840F15A
:10521000000018EB0E0B58EB000840F100008F1A4D
:105220004FF000013CBFC943661B14BFB5EB040C33
:1052300000213CBFC943F61B4FEA17444EEA8E0ECD
:1052400027EA04454FEA1C4704FB07622CEA074C97
:1052500005FB07F70CFB05F604FB0CFC16EB0746F9
:1052600042EB174216EB0C4642EB1C421BEB0606C8
:1052700058EB0202414146EA9E0601D5BDE801898C
:10528000B619524141EB0101A3F10103BDE80189C7
:105290004FEA14454FEA114724EA054621EA074C34
:1052A00005FB07F406FB07F70CFB06F105FB0CFCFE
:1052B00011EB074144EB17444FEA124711EB0C4145
:1052C00044EB1C4422EA074C05FB07F206FB07F7F8
:1052D0000CFB06F605FB0CFC16EB074642EB1742EF
:1052E00016EB0C4642EB1C456A1854F1000148BF0E
:1052F0007047B619524141EB0101A3F10103704718
:1053000095F0000F37D04FEA11424FEA144721EAD7
:10531000024624EA074C02FB07F106FB07F70CFBE9
:1053200006F402FB0CFC14EB074441EB17414FEA77
:10533000154714EB0C4441EB1C4125EA074C02FBDA
:1053400007F506FB07F70CFB06F602FB0CFC16EB59
:10535000074645EB174516EB0C4645EB1C42121968
:1053600051F1000148BF7047B619524141EB0101AC
:10537000A3F1010370474FEA14454FEA114724EAAD
:10538000054621EA074C05FB07F106FB07F70CFB76
:1053900006F24FF0000605FB0CFC12EB074241EB56
:1053A000174112EB0C4251EB1C4148BF7047921859
:1053B00041EB0101A3F101037047490050EAC1200C
:1053C00000D004204A0D01D040F0010040F2FF72ED
:1053D000B2EB515F01D140F00200012800D105205D
:1053E0007047000010B500290AD00878002807D0BF
:1053F00005487844FFF7E6FB002801D0002010BDE7
:105400000248784410BD0000160F00000E0F000087
:1054100010B591EA030F48BF83F0004300F16082AA
:10542000841A71EB030E05D2121943EB0E03001B15
:1054300061EB0E01DFF880C14FEA1154A4EB135E5B
:105440001CEA430F18BF9CEA445F7DD023EA0C039B
:1054500021EA045143F48013DEF1200C38D322FA00
:105460000EFC10EB0C0023FA0EFC41EB0C01CEF10C
:10547000200C03FA0CFC10EB0C0051F10001B1F50B
:10548000801FCEF1200C38D201EB0451BDE8104052
:1054900012FA0CF258BF7047401C38BF5FEA420254
:1054A00018BF7047002814BF20F0010041F100012F
:1054B0004FEA410313F5001F38BF704728BFB1F111
:1054C000C0413E494FF0000048BF41F000417047E5
:1054D000012A43EB0302AEF1200EDEF11F0C32BFB6
:1054E0004FF0000C23FA0EF310EB030041EB0451D4
:1054F000B4EB115FCAD0A1EB045101F5801149084A
:1055000001EB0451BDE810405FEA30000CD350F1CC
:10551000000038BF12FA0CFC06D1C3E7401C38BFAC
:105520005FEA4202C4D1BDE74FEA410313F5001F11
:1055300038BF704728BFB1F1C04120494FF000008B
:1055400048BF41F0004170479CEA445F08D0BDE885
:10555000104011EA5C0F04BF01F0004100207047C9
:10556000012841EB0104012A43EB030E644598BF77
:10557000E645DFF84CC0BDE8104000F22580AFF3EF
:105580000080012841EB0100012A43EB0302904215
:1055900008D010F5001F04BF0020704719464FF0D7
:1055A0000000704791EA030F4FF0000058BF7047AA
:1055B00004494FF0000070470000E0FF0000F07F5A
:1055C000110000040000F87F02494FF0000000F0D5
:1055D00077BD00000000F87F02494FF0000000F0A6
:1055E0006FBD00000000F87F4FF0807212EB400F9B
:1055F00098BF12EB410F1DD8AFF3008050EA0102B3
:1056000004D488420DD6EFF3008070478142EFF357
:10561000008020F0104038BF40F0004080F3008848
:1056200070474FF0010238BF022A68BF002AEFF32B
:10563000008070471CF4502F00F00C8300F072BD06
:105640004FEAC12303B40A1543EA505318BF43F08D
:1056500000430DD4A2F56072D2F19E0240F3218086
:10566000FF2ACCBF002123FA02F1084602B070479E
:105670004FEA4252520D08BF23F000434FF00001A1
:10568000A2F56072D2F19E020BDBFF2ADCBF23FA87
:1056900002FCA1EB0C010029DEBF02B008467047F6
:1056A000FFE703BCDFF830C0012841EB010313F52D
:1056B000001F88BF4CF4803C3FF68EAF3EBF6FEAC0
:1056C000E17080F000407047AFF300806FEAE17056
:1056D00080F0004070470000C800020410F0004352
:1056E00014BF4142014643F08043B1FA81FC03F10B
:1056F000F87311FA0CF1A3EB0C534FEA415008BFB9
:10570000704703EBE1217047DFF8B4C170B53CEAA4
:10571000111E18BF3CEA131E00F0A68081EA0305A3
:105720000CEA111E4EEAD57E1CEA131518BF11EAC9
:105730000C1F00F08F80AE4421EA4C1123EA4C1379
:10574000AEF17F7E41F4801143F48013A1FB024C43
:10575000A0FB0365361955EB0C05A1FB034C4CF17E
:105760000003A0FB021C16EB0C06654153F100037D
:10577000094218BF46F001064FF0140CB3F5007F44
:105780004CF1000CCCF1200425FA0CF203FA04F1E0
:1057900041EA020105FA04F026FA0CF240EA02009E
:1057A0006FF0030242EB2E4216FA04F401EB0255AD
:1057B00085EACE7115D05FEA440C38BF4FF0404403
:1057C0000FD308BF43F0004350F1000041F1000146
:1057D00010EAD37F4FF0804420EAD37018BF4FF017
:1057E000404415F0004FDFF8DCC017D415EA0C0F69
:1057F00018BF3CEA010C11D070BD5FEACE7454BFF3
:105800001CF4000F1CF4800F0ABF4FF080444FF0CF
:10581000404410F1010041F10001E2E7BEF1806F68
:10582000A2BFA1F1C04144F0130C4CF0805CBDE874
:10583000704006DA4FF0000001F1C04101F0004174
:1058400070476FF0000041EA500181EA10314FF0DB
:10585000000070474FEACE714FF0000070BD4FEA74
:10586000CE714FF0000070BD4FEA4105B5EB4C1F03
:105870004FEA430608BF002898BFB6EB4C1F08BF8D
:10588000002ABDE87040DFF840C03FF69DAEAFF3A0
:1058900000804FF4001CBCEB410F98BFBCEB430FE2
:1058A0000AD84FF0000081EA030101F0004141F005
:1058B000FE4141F47001704704494FF00000704709
:1058C0000000FF070000F07F130000040000F87FD5
:1058D00010B591EA030F48BF83F000433FF5A0AD38
:1058E000841A71EB030E07D212198EF0004E43EBAF
:1058F0000E03001B61EB0E01DFF810C24FEA1154DA
:10590000A4EB135E1CEA430F18BF9CEA445F00F04F
:10591000C58023EA6C03524221EA0451C3EB6C03B5
:1059200038BF5B1EDEF1200C29D322FA0EFC10EBEF
:105930000C0043FA0EFC41EB0C01CEF1200C03FAF3
:105940000CFC10EB0C0051F10001CEF1200C2DD419
:1059500001EB0451BDE8104012FA0CF24FF0120CAA
:105960004CF0804C58BF7047401C1CBFB2F1004F38
:10597000704700280CBF491C20F00100704712EB53
:10598000020C43EB030218BF4FF0010C4CEA420239
:10599000AEF1200EDEF11E0C63D943FA0EFC10EBC3
:1059A0000C0051F1FF31CEF11E0CD1D50CF1010CE0
:1059B00012FA0CFC404141EB010101EB445E5FEA4D
:1059C0005E5E10D901EB0451BDE8104010EBDC70B5
:1059D00038BFBCF1004F18BF704700280CBF491CEE
:1059E00020F0010070473FD211F5001108BF0028D8
:1059F00001D1BDE810403FD04FEAD42E24F400641A
:105A0000B1FA81F2202AA4F1020404BFB0FA80F3B3
:105A1000D218A2F10B02B2F12003A4EB02040CD2C3
:105A2000C2F1200301FA02F120FA03F341EA030173
:105A300000FA02F0C2F1200303E000FA03F14FF094
:105A4000000001EBCE71002C01EB0451BDE81040C9
:105A5000A8BF704701F1C0414FF0000001F00041C4
:105A6000704701EB045110BD491001EB0451BDE832
:105A700010404FEA300002E04FF0000170474FF055
:105A8000120C4A0008BF0042F6D0B2F5001F28BF32
:105A9000704701F000414FF0000070479CEA445FFE
:105AA00007D0BDE8104011EA5C0F04BF00210020C0
:105AB0007047012841EB0104012A43EB030E6445C2
:105AC00098BFE645DFF848C0BDE810403FF67CAD22
:105AD000AFF30080012841EB0100012A43EB0302F0
